:020000040800F2
:10000000C016002001010008D92C00086127000853
:10001000152A0008C11100089137000800000000EF
:100020000000000000000000000000004D3000084B
:100030000312000800000000512F000801330008DF
:100040001B0100081B0100081B0100081B01000820
:100050001B0100081B0100081B0100081B01000810
:100060001B0100081B0100081B0100081B01000800
:100070001B0100081B0100081B0100081B010008F0
:100080001B0100081B0100081B0100081B010008E0
:100090001B0100081B0100081B0100081B010008D0
:1000A0001B0100081B0100081B0100081B010008C0
:1000B000553300081B0100081B0100081B01000844
:1000C0001B0100081B0100081B0100081B010008A0
:1000D0001B0100086D3700087937000885370008D4
:1000E0001B0100081B0100081B010008DFF80CD0F1
:1000F00000F07CFF0048004751460008C016002071
:100100000648804706480047FEE7FEE7FEE7FEE7B1
:10011000FEE7FEE7FEE7FEE7FEE7FEE753330008F3
:10012000ED000008202A04DB203A21FA02F0002129
:10013000704721FA02F3D040C2F1200291400843F7
:1001400019467047A0F14101192900D820307047A5
:1001500040EA01039B0703D009E008C9121F08C049
:10016000042AFAD203E011F8013B00F8013B521EC9
:10017000F9D27047D2B201E000F8012B491EFBD240
:1001800070470022F6E710B513460A4604461946A2
:10019000FFF7F0FF204610BD421E12F8013F002B72
:1001A000FBD111F8013B02F8013B002BF9D170475C
:1001B000421C10F8011B0029FBD1801A704710B5B2
:1001C000002200E0521C835C8C5CA34201D1002B16
:1001D000F8D1D8B2E1B2401A10BD30B505460020C2
:1001E000034600E05B1C934205D2EC5CC85C201A1D
:1001F00001D1002CF6D130BD2DE9FF4F087883B036
:100200009946FF2805D0491C2D2804D00024002041
:1002100008E000200BE00124F9E700EB800003EB8D
:100220004000491C0B78FF2BF7D104B1404200235A
:100230000293147819461D462D2C01D02B2C04D185
:10024000521C2D2C13D000240294AA461478FF2CA3
:100250000FD00A25A3FB057801FB05814FF0000CA8
:1002600003FB0C11521CE3194AEB0101EEE70124D8
:10027000EAE7814453EA010002D019F5C87F06DAA3
:1002800003980021C0E9001107B0BDE8F08F0025F8
:10029000AE4E2F46DFF8B882184600F083FECDE957
:1002A0000001B9F1000002DAC9F1000400E00446DF
:1002B0000023A74A1AEB030B42EB045A12E0E007B3
:1002C00007D02A4633463846414600F0CDFA074665
:1002D00088462A4633461046194600F0C5FA0546B8
:1002E0000E466410002CEAD1DDE90001B9F1000FDF
:1002F0005A46534606DA00F029FB3A46434600F0D8
:1003000025FB05E000F0B0FA3A46434600F0ACFAAF
:10031000029A0AB181F00041039AC2E90001B3E7F1
:100320002DE9FF4F1F468DB0D7E901464FF0FF384A
:100330002E2045464FF000090B90B9696D1C0E98B0
:100340008847396A824688470028F6D1BAF1FF3FCC
:100350000AD024F4D064002E11DDBAF12B0F08D09E
:10036000BAF12D0F0BD102E0404611B08DE744F4F5
:100370008064B9696D1C0E9888478246761E69466E
:10038000600501D52D2000E02B208DF8000001F143
:10039000010B0DF1200809E0B9696D1C0E98884722
:1003A00082460F9844F40074761E0560002E02DD2C
:1003B000BAF1300FF0D00B998A453ED144F0800459
:1003C00006E00F99681CA9F1010944F40074086063
:1003D000B9696D1C761E0E98884782463028F0D089
:1003E0002BE00B998A4505D1200603D444F0800404
:1003F000761E18E0504603F0F3FB08B30DF113012D
:10040000761E44F400748B4508D2AAF130000BF834
:10041000010B200607D5A9F1010003E0200602D454
:1004200009F101008146A00502D50F99681C0860FA
:10043000B9696D1C0E9888478246002ED1DC53E0C6
:10044000002E51DDBAF1650F02D0BAF1450F4BD144
:10045000A00549D5B9696D1C24F44074761E0E9828
:1004600088478246002E0CDD2B2804D0BAF12D0FD0
:1004700007D144F48074B9696D1C0E988847824690
:10048000761EE00501D52D2100E02B2108F8011B87
:10049000CDF82C8021E00DF12901761E44F4007482
:1004A00088450CD2AAF1300010F0FF0088F8000057
:1004B00002D10B99884509D908F1010806E0E00549
:1004C00001D5244801E042F20F708146B9696D1CE4
:1004D0000E98884782460F980560002E04DD50462E
:1004E00003F07EFB0028D6D1F9690E988847FF20DB
:1004F0008BF8000088F800000020069007904B461B
:100500006A4608A906A8FFF777FEA00502D46FF097
:1005100001002AE714F0240F0AD0E00714D1DDE926
:1005200006123868031D3B600068C0E900120BE04A
:10053000DDE9060100F064FB0146E00704D13868FC
:10054000021D3A600068016028460EE70000144072
:100550000000F03FF1D8FFFF70B5064603F098F9B0
:10056000046805460A220021304600F04FFC2C604A
:1005700070BDF0B480EA0102D40F4200B2EB410F2B
:1005800002D20246084611464A0042D0C30DDDB2EF
:10059000C1F3C752AD1A202D35DAC1F3160141F46B
:1005A000000204B15242C5F1200602FA06F12A41C6
:1005B0001044B3EBD05F23D0C4B1012DA0EBC350E6
:1005C00009DCF0BC4FF0004202EAC352DBB200F596
:1005D000000000F05CBC400000F1807000EBC350F4
:1005E000A0F1807040EAD170490009E0490841EA71
:1005F000C071A0EBC35000F50000400800EBC350F1
:10060000F0BC00F03BBC6142012202EB4101001B47
:10061000F6E7F0BC704781F00041AAE780F00040A7
:10062000A7E780EA010210B502F00043400022D0A3
:100630004A001FD0010E01EB1261C0F35600C2F355
:10064000560240F4000042F40002A0FB0220000425
:100650007F39140400D0401C50EA124001D44000FD
:10066000491EC2B20C0604EBD010401C4008802A80
:1006700002D003E0002010BD20F00100002900DAC4
:100680000020184310BD30B480EA010202F000459A
:1006900030F0004221F0004013D090B1C30DD40DD2
:1006A000C2F31601C0F31600E41A41F4000140F44D
:1006B00000027D34914201D3641C00E04900002C0B
:1006C00002DA30BC002070474FF400000023914252
:1006D00001D3891A034340084FEA4101F7D151B1D0
:1006E000914202D14FF0004105E002D24FF00101EA
:1006F00001E06FF0010103EBC450284430BC00F06E
:10070000BDBB420005D0C0F3C7525242914201DC4A
:100710000020704700EBC15070472DE9FE4F804626
:1007200081EA0300C00F0C46009021F0004123F045
:100730000045B8EB0200A94105D24046214690464B
:100740001C460B46024623F00040104347D0270DBD
:10075000C7F30A00C3F30A510290401A01904028DF
:100760006BDAC3F3130040F4801B0098924620B16B
:100770000023D2EB030A63EB0B0B01985946C0F13F
:100780004002504600F0B3FA06460D465046594620
:10079000019A00F0BBFA10EB08006141002487EADF
:1007A000115284EAE7731A4340D0009A62B3019A67
:1007B000012A4FEA075215DC001B61EB02014FF0E2
:1007C000004202EA0752CDE90042001C41F58011C7
:1007D00032462B4600F098FB03B0BDE8F08F404650
:1007E0002146F9E7001B61EB0201001C41F5801373
:1007F00000185B412018A2F5001747EB030140EAFF
:10080000D570B6196D4111E06D084FEA360645EA1C
:10081000C0754FEA0752001B61EB0201001C41F555
:10082000801149084FEA30000019514132462B46E9
:1008300003B0BDE8F04F00F058BB00980122400023
:100840000023D0EB020263EBE073009821464FEAED
:10085000E074B8EB000061EB0401E9E783F00043CA
:100860005BE781F0004158E72DE9FE4F81EA030480
:1008700004F0004421F0004100944FF0000B23F0FD
:10088000004350EA01045ED052EA03045BD0C3F394
:100890000A54C1F30A552C44A4F2F3340194A0FB8A
:1008A0000254C1F3130141F48011C3F3130343F461
:1008B000801301FB024400FB034E840A970A44EABA
:1008C000815447EA8357A4FB076802958D0A05FB0C
:1008D00007854FEA932C04FB0C542705029D4FEA31
:1008E000065847EA1637B5EB08056EEB070C870E7E
:1008F000920E47EA811742EA8312A7FB0201B6EB88
:100900000B0164EB00042B0D43EA0C335E1844EB3F
:100910001C50DA465146E7FB0201C5F313044FEAC7
:100920000B3343EA14534FEA0432019C43EA0603B3
:10093000A4F10C040294009CCDE900B400F0E4FAA8
:1009400003B0BDE8F08F00200146F9E72DE9F04D36
:1009500081EA030404F0004B21F0004514464FF0F7
:10096000000A23F0004150EA050220D054EA0102B7
:100970001DD0C5F30A570246C5F31303C1F3130094
:10098000C1F30A5640F4801543F48013A7EB060820
:10099000101BD64608F2FD3873EB050002D308F1B0
:1009A000010801E092185B41B8F1000F03DA002062
:1009B0000146BDE8F08D00204FF4801106468446C4
:1009C0000EE0171B73EB050705D3121B63EB050342
:1009D00006434CEA010C49084FEA300092185B418B
:1009E00050EA0107EDD152EA030012D082EA040076
:1009F00083EA0501084305D0101BAB4106D2012252
:100A0000002306E000224FF0004302E06FF00102F5
:100A100053101AEB06004CEB085110EB0A0041EBA7
:100A20000B01BDE8F04D00F060BA70B521F0004355
:100A300003430CD0C1F30A550024D5EB040564EB45
:100A40000403D617AD1AB34102DB0020014670BD86
:100A5000201841EB025170BDC10F80EAE0700844DC
:100A6000CA079623002100F012BA962300221146ED
:100A700000F00DBA0EB5C10F80EAE0700844CA0755
:100A8000002140F233438DE80E000A460B4600F089
:100A90003BFA03B000BD0EB540F233410291002194
:100AA000CDE900110A460B4600F02EFA03B000BD56
:100AB00000F0004220F00040C10DC0F3160040F4E9
:100AC00000007F2901DA00207047962903DCC1F17C
:100AD0009601C84001E096398840002AF4D040428F
:100AE000704720F00040C10DC0F3160040F4000034
:100AF0007F2901DA00207047962903DCC1F19601B5
:100B0000C840704796398840704770B5C1F30A52A3
:100B100001F000450024C1F3130140F2FF3341F41A
:100B200080119A4201DA002070BD40F233439A42AC
:100B3000A2F2334203DC5242FFF7F4FA00E09040A5
:100B40002C43F1D0404270BDC1F30A5210B5C1F33D
:100B5000130140F2FF3341F480119A4201DA002080
:100B600010BD40F233439A42A2F2334203DC5242B8
:100B7000FFF7D8FA10BD904010BD00F0004230F0F1
:100B800000400AD0C10D01F56071C0F3160042EAC1
:100B90000151C208400711437047002001467047C9
:100BA00030B5041E71F1000404DB4FF000444042F4
:100BB00064EB0101141E73F1000405DB1C464FF0C9
:100BC0000043524263EB04038B4208BF824230BDB4
:100BD00030B5041E71F1000404DB4FF000444042C4
:100BE00064EB0101141E73F1000405DB1C464FF099
:100BF0000043524263EB0403994208BF904230BD68
:100C000001F0004330B421F0004150EA010206D067
:100C10000A0DA2F56072C1F31301002A02DC30BC98
:100C200000207047440F44EAC104C100E01830BC02
:100C300000EBC25000F022B9002801DBC0F10040F7
:100C4000002901DBC1F1004181427047002801DB2E
:100C5000C0F10040002901DBC1F10041884270472A
:100C600030B50B46014600202022012409E021FA7C
:100C700002F59D4205D303FA02F5491B04FA02F579
:100C80002844151EA2F10102F1DC30BD2DE9F05F10
:100C90000546002092469B468846064681464024EB
:100CA0001BE02846414647462246FFF73BFA53469B
:100CB0005A46C01A914110D311461846224600F0F8
:100CC00016F82D1A67EB01084F4622460120002135
:100CD00000F00DF817EB00094E41201EA4F10104AD
:100CE000DFDC484631462A464346BDE8F09F202ACD
:100CF00004DB203A00FA02F1002070479140C2F173
:100D0000200320FA03F3194390407047202A06DBA2
:100D1000CB17203A41FA02F043EAE07306E041FAC9
:100D200002F3D040C2F120029140084319467047B7
:100D3000426842B1016811F8013B23B1521EC0E97B
:100D40000012184670470121C160881E7047426832
:100D50005AB1C368016843B983688B4205D0491E04
:100D6000521CC0E90012002070474FF0FF3070475E
:100D70000FB4002300B589B00CA900910B996FF056
:100D80000042CB601E4B06931E4B07930423CDE914
:100D900001321D4A089202466B460020FFF7C0FA56
:100DA00009B05DF814FB70B586B006464FF0FF3011
:100DB0000091CDE90101002015460C460490324611
:100DC000694604A8FFF7D4FF02460498211825B10C
:100DD00008B1084600E020462860049800280DD09D
:100DE000002A02DD0098884208D0081B0094CDE953
:100DF00001043246694604A8FFF7BAFF06B070BD89
:100E0000310D00084F0D0008191000082DE9F047BA
:100E100091460F4680460446002614F8015B2DB12A
:100E200000F0F6F80068405DC007F6D12B2D02D027
:100E30002D2D18D0641E4A463946204600F0F5F89C
:100E400027B13968A14201D1C7F8008071054FF080
:100E500002040BD54042002803DD02F019FD0460B6
:100E6000A007BDE8F08746F48066E4E70028F8DADA
:100E700002F00EFD04606FF00040F2E70029A8BF09
:100E80007047401C490008BF20F00100704710B4B3
:100E9000B0FA80FC00FA0CF050EA010404BF10BC68
:100EA000704749B1CCF1200421FA04F411FA0CF195
:100EB00018BF012121430843A3EB0C01CB1D4FEACE
:100EC00000614FEA102042BF002010BC704700EBC9
:100ED000C35010440029A4BF10BC7047401C4900F7
:100EE00008BF20F0010010BC704710B5141E73F14C
:100EF000000408DA401C41F1000192185B411A43DA
:100F000001D120F0010010BD2DE9F04D92469B4625
:100F100011B1B1FA81F202E0B0FA80F220329046CB
:100F2000FFF7E5FE04460F4640EA0A0041EA0B01DE
:100F300053465A46084313D0114653EA010019D0CC
:100F4000C8F140025046FFF7EDF805460E46504600
:100F500059464246FFF7CBFE084305D0012004E086
:100F600020463946BDE8F08D0020054346EAE0768C
:100F70002C4337430A986305E40AA0EB08000022DB
:100F8000FD0A44EA47540A3002D500200146E9E749
:100F9000010510196941DDE9084500196941BDE8FD
:100FA000F04DA2E70EB540F2334202920022CDE9A5
:100FB00000221346FFF7A8FF03B000BDC1F30A5299
:100FC000C1F3130140F2FF3341F480119A4202DA77
:100FD00000200146704740F233439A42A2F2334266
:100FE00002DC5242FFF79EB8FFF781BE064C074D68
:100FF00006E0E06840F0010394E8070098471034E9
:10100000AC42F6D3FFF776F8D8600008F860000825
:1010100000487047D460000810B50446FFF7F8FF99
:101020000068005D00F0010010BD2DE9F05F824610
:101030000078002715468B460AF10104B94630288E
:1010400001D09DB113E014F8010B0127782803D0DB
:10105000582801D045B10AE00DB1102D07D1002765
:10106000102514F8010B02E0082500E00A250026EF
:10107000B0460EE005FB080005FB06F1012701EB79
:1010800010461FFA80F8B6F5803F00D3B94614F831
:10109000010B294600F069F80028EBDABBF1000FDC
:1010A00005D00FB1641E00E05446CBF80040B9F102
:1010B000000F06D002F0ECFB02210160C81EBDE863
:1010C000F09F48EA0640FAE72DE9F04D00231A4662
:1010D0001B1A8A4103DB00200146BDE8F08DC1F3F5
:1010E0000A52C1F3130141F480154FF0000BD107F0
:1010F00002D100186D41521E0027044640F2FF1134
:10110000384601EB620A3E468046024600204FF414
:101110008011FFF707F8C2197141BB1846EB0100B7
:10112000B4EB030C75EB000C04D3E41A65EB00057B
:1011300017460E46241908F101006D4180463428F7
:10114000E3DDF91946EB0600091BA84103D24FF075
:10115000FF32134601E0002213461BEB070046EB6B
:101160000A51BDE8F04DFFF7C0BE3A2800D2303832
:1011700020F02002412A01D3A2F13700884201D396
:101180004FF0FF30704730B58C1810F8012B12F07B
:101190000F0301D110F8013B120906D110F8012B01
:1011A00003E010F8015B01F8015B5B1EF9D101E07F
:1011B00001F8013B521EFBD1A142E6D3002030BD15
:1011C000FEE701460068496870474FF45271484392
:1011D0004FF4B471B0FBF1F010B5FFF746FCFFF728
:1011E00080FC80B210BD4FF4B47148434FF452718B
:1011F000B0FBF1F010B5FFF738FCFFF772FC80B2DE
:1012000010BD704709480068416A094A1069081A08
:10121000B0F5004F02DDA0F5803004E010F5004F7E
:1012200001DA00F58030116170470000380F0020AE
:10123000800000207047000010B590F821100024B5
:10124000022903D00421816301243DE001680A687A
:1012500022F00E020A6001680A6822F001020A60A8
:101260001A4A0168914201D1012121E0174A143242
:10127000914201D110211BE0144A2832914201D140
:10128000891515E0114A3C32914201D189140FE0D1
:101290000E4A5032914202D14FF4803108E00B4A9D
:1012A0006432914202D14FF4801101E04FF080711D
:1012B000064A083A5160012180F82110002180F887
:1012C0002010416B01B18847204610BD0800024044
:1012D00070B5044600F004F90546601C02D00448CD
:1012E0000078044400F0FCF8401BA042FAD370BD23
:1012F0002C0100202DE9F84FDFF8B891002409F106
:10130000040A0AF1040B23460F270BF1040EC9E06F
:101310000125A5402A40AA427DD1674ED1F804C0DC
:10132000ACEB0608B44532D014DCBCF1030F3AD064
:1013300009DCBCF1000F2AD0BCF1010F1CD0BCF1BC
:10134000020F31D11DE0BCF1110F17D0BCF1120F0B
:101350002AD119E0B8F5881F19D006DCB8F5803F0E
:1013600015D0B8F5801F1FD111E0B8F5001F0ED0C1
:10137000B8F5041F18D10AE0CB6815E0CB681B1D37
:1013800012E0CB6808330FE0CB680C330CE08B68BD
:101390002BB1012B4FF0080303D0456104E0042377
:1013A00002E0056100E00023FF2A01D8064601E0C3
:1013B00000F104064FEA840501D9A5F12005D6F80D
:1013C000008007FA05FC28EA0C0803FA05F548EA4C
:1013D0000508C6F800804D68ED0062D5374DAE694E
:1013E00046F00106AE61AD6924F0030605F0010583
:1013F0000095334D06EB050CDCF80850A607360FB8
:1014000007FA06F825EA0805DFF8B880404503D159
:101410004FF0000817E044E0DFF8AC80404502D10F
:101420004FF001080FE0DFF8A480404502D14FF0F3
:10143000020808E0DFF89880404502D14FF0030829
:1014400001E04FF0040808FA06F848EA0508CCF86D
:1014500008804D68D9F80060ED034D4601D516436C
:1014600000E096432E604D68DAF80060AD03554603
:1014700001D5164300E096432E604D68DBF800600E
:10148000ED025D4601D5164300E096432E604D689F
:10149000DEF80060AD02754601D5164300E09643C4
:1014A0002E60641C0D682A46E5407FF431AFBDE82C
:1014B000F88F0000000401400000111000100240ED
:1014C0000000014000080140000C014000100140F4
:1014D000001401400AB1016170470904FBE70000F4
:1014E00001488068704700002C0100200248816894
:1014F00002781144816070472C010020074810B524
:10150000016841F010010160032000F075F800202F
:1015100000F006F800F024F8002010BD0020024082
:1015200070B50D4D04464FF47A712878B1FBF0F098
:101530000A490968B1FBF0F000F0ECFA48B9102C48
:1015400007D200222146501E00F036F800206C60C1
:1015500070BD012070BD00002C010020380100206A
:101560000C4808B5816941F001018161816901F090
:1015700001010091C16941F08051C161C06900F071
:10158000805000900448416821F0E06141F0007112
:10159000416008BD0010024000000140002809DB46
:1015A00000F01F02012191404009800000F1E0207D
:1015B000C0F8001170470000F0B40E4B1B680C46D9
:1015C000C3F30223C3F10705042D00D90425191D17
:1015D000072901D2002300E0DB1E012606FA05F1EF
:1015E000491E214099409E40761E16403143F0BC72
:1015F00002F03EB90CED00E0064900F00702086871
:101600004FF6FF03184040EA0220034A10430860E7
:10161000704700000CED00E00000FA052DE9F047EE
:101620000F46050061D0434E306800F00700B84215
:1016300009D2306820F0070038433060306800F08D
:101640000700B84251D128683B4C810712D54007AA
:1016500003D5606840F4E06060602878000703D537
:10166000606840F4605060606068A96820F0F00035
:10167000084360602878C00728D06868012810D027
:101680002168022810D0890700292EDA616821F02C
:10169000030101436160FFF723FF804641F288396F
:1016A0000DE021688903EFE78901EDE7FFF718FFF7
:1016B000A0EB0801494502D90320BDE8F087606826
:1016C000696800F00C00B0EB810FEFD1306800F0DA
:1016D0000700B8420BD9306820F00700384330606B
:1016E000306800F00700B84201D00120E5E7287813
:1016F000400705D56068E96820F4E0600843606051
:101700002878000706D56068296920F4605040EA0F
:10171000C100606000F038F86168084AC1F3031145
:10172000515CC8400649086006480068FFF7F8FEAB
:101730000020C2E70020024000100240A85F00081D
:10174000380100203001002004480549006849683C
:10175000044AC1F30221515CC8407047380100209F
:1017600000100240B85F0008044805490068496855
:10177000044AC1F3C221515CC840704738010020BF
:1017800000100240B85F000812A185B00FC98DE8B3
:101790000F0014A0144A006804905168134801F027
:1017A0000C03042B10D0082B0ED1C1F38343C903C3
:1017B0001DF803000AD5516804AAC1F34041515CE9
:1017C0000A4A5043B0FBF1F005B07047084948435E
:1017D000FAE7000002030405060708090A0B0C0DCE
:1017E0000E0F1010010200000010024000127A00DB
:1017F00000093D002DE9F84F040070D02078C04D5D
:10180000C00749D06868C0F38100012807D0686824
:10181000C0F38100022809D16868C00306D5286892
:10182000800339D560680028E7D035E06068B0F5FE
:10183000803F0BD010B1B0F5A02F11D0286820F454
:1018400080302860286820F4802002E0286840F476
:1018500080302860606890B1FFF742FE06460AE0DB
:10186000286840F480202860F0E700BFFFF738FECA
:10187000801B642873D828688003F7D50CE0FFF735
:101880002FFE064605E000BFFFF72AFE801B6428F6
:10189000F0D828688003F7D420789A4E80074FF05C
:1018A00001094FF0000839D5686810F00C0F07D017
:1018B0006868C0F38100022809D16868C00306D4B3
:1018C0002868800714D52069012808D110E0206914
:1018D000B0B1C6F80090FFF703FE074605E00AE145
:1018E000FFF7FEFDC01B0228C4D828688007F7D583
:1018F0002868616920F0F80040EAC10028600DE026
:10190000C6F80080FFF7ECFD074604E0FFF7E8FDAE
:10191000C01B022823D828688007F7D42078000746
:101920002CD57948A169D9B1C0F80090FFF7D8FD4E
:10193000074604E0FFF7D4FDC01B02280FD8686AF1
:101940008007F7D571484FF4FA510068B0FBF1F009
:10195000009000BF0098411E0091FAD20EE080E096
:10196000C0F80080FFF7BCFD074604E0FFF7B8FDB4
:10197000C01B022875D8686A8007F7D42078400712
:1019800060D5E8690027C00008D4E86940F08050BD
:10199000E861E869012700F0805000905C48016828
:1019A000C90513D40168834641F480710160FFF7D3
:1019B00097FD824606E000BFFFF792FDA0EB0A000C
:1019C00064284ED8DBF80000C005F5D5E068012892
:1019D0000AD008B1052813D0286A20F00100286237
:1019E000286A20F0040002E0286A40F00100286222
:1019F000E06841F2883B98B1FFF772FD82460BE048
:101A0000286A40F004002862EEE700BFFFF768FD97
:101A1000A0EB0A0159455AD8286A8007F6D50CE090
:101A2000FFF75EFD824605E0FFF75AFDA0EB0A01D5
:101A300059454CD8286A8007F6D41FB1E86920F0D0
:101A40008050E861E06988B36968C1F381010229C7
:101A500044D00228C6F8608004D0FFF741FD044658
:101A600038E034E0FFF73CFD074604E0FFF738FDBF
:101A7000C01B02282BD828688001F7D4206AB0F553
:101A8000803F05D16868A16820F400300843686091
:101A9000D4E908010843696821F4741108436860B7
:101AA000C6F86090FFF71CFD044606E025E000BF85
:101AB000FFF716FD001B022809D828688001F7D51A
:101AC0001BE000BFFFF70CFD001B022802D903201A
:101AD000BDE8F88F28688001F4D40EE00128F7D023
:101AE0006868226A00F48031914204D1616A00F48E
:101AF0007010884201D00120EAE70020E8E70000EA
:101B0000001002400000424280044242380100209E
:101B10000070004010B5401EB0F1807F01D301205D
:101B200010BD4FF0E02460610F21601701F0A0FEAE
:101B30000020A06107202061002010BD7047704781
:101B400070B590F83C20012A26D0012480F83C4052
:101B5000022280F83D2003685A689D6822F07006D2
:101B60000A6832435A600D4B02689A4208D0B2F1BB
:101B7000804F05D00A4B9A4202D00A4B9A4204D1B8
:101B8000496825F080031943916080F83D400021A9
:101B900080F83C10084670BD022070BD002C01404A
:101BA000000400400008004010B5040003D094F881
:101BB0003D0010B107E0012010BD002084F83C007A
:101BC000204600F01FF8022084F83D00211D206807
:101BD00001F0C6FB012084F8460084F83E0084F83A
:101BE0003F0084F8400084F8410084F8420084F803
:101BF000430084F8440084F8450084F83D00002048
:101C000010BD000008B50068B0F1804F12D10A483D
:101C1000C16941F00101C161C069002200F0010009
:101C2000009011461C20FFF7C7FCBDE808401C20AF
:101C3000FFF7B4BC08BD00000010024090F83D1052
:101C4000012901D001207047022180F83D10016870
:101C5000CA6842F00102CA6000680B49884208D095
:101C6000B0F1804F05D00949884202D00849884226
:101C700004D1816801F00701062903D0016841F011
:101C80000101016000207047002C01400004004069
:101C90000008004070B5044690F83C00012817D0B9
:101CA000012584F83C50022084F83D0020688268B9
:101CB00022F0770222F47F4282600868502830D0F8
:101CC0000DDC20284DD005DC98B310283BD148E02E
:101CD000022070BD302844D0402834D139E060283B
:101CE00028D0702806D0B0F5805F2CD0B0F5005F0A
:101CF00029D10AE0CB68D1E90121206801F073FB0A
:101D00002068816841F0770109E0CB68D1E90121C1
:101D1000206801F068FB2068816841F4804181609F
:101D200011E0CA684968206801F012FC502120685F
:101D300007E016E0CA684968206801F01AFC6021D3
:101D4000206801F05AFB84F83D50002084F83C00E4
:101D500070BDCA684968206801F0FAFB402120681C
:101D6000EFE7226801461046EBE72DE9F0410D460A
:101D7000040003D094F83D0018B108E00120BDE84C
:101D8000F081002084F83C00204600F041F8022059
:101D900084F83D002068816844F207029143816025
:101DA000211D206801F0DCFA226890689169166AAA
:101DB0002B68AF69034340F20330814341EA0721B6
:101DC000A868EF6908434FF6FC418843E96840EA98
:101DD0000720014328692F6A000140EA07300843C1
:101DE00069686D6926F0220646EA05152943936065
:101DF0002268906154F8460B0162012004F81F0923
:101E0000E0752076E0762077A0750020B7E7000027
:101E100000B585B000210091019102910391006805
:101E20000D49884216D10D48C16941F00401C161D4
:101E3000C16901F004010491816941F008018161E7
:101E40008069694600F008000490C02000900448B2
:101E5000FFF750FA05B000BD000800400010024036
:101E6000000C014070B590F83E60044690F83F5079
:101E700090F8423090F84320022021B104290ED07E
:101E8000012E1BD114E0012E18D1012B16D184F89C
:101E90003E0084F8420001220021206820E0012D4C
:101EA0000CD1012A0AD184F83F0084F8430014E0E1
:101EB000012D03D1012B01D1012A01D0012070BDD8
:101EC00084F83E0084F83F0084F8420084F8430020
:101ED00001220021206801F079FA01220421206802
:101EE00001F074FA2068016841F0010101600020EE
:101EF00070BD704770B50446006801694FF0000579
:101F0000C943890715D4C168C943890711D4E91E9B
:101F1000016101202077206880698007204602D077
:101F2000FFF7E7FF04E000F0BFF8204600F062F999
:101F3000257720680169C943490717D4C168C94397
:101F4000490713D46FF00401016102202077206853
:101F5000806910F4407F204602D0FFF7CAFF04E0FA
:101F600000F0A2F8204600F045F9257720680169C5
:101F7000C943090716D4C168C943090712D46FF0D1
:101F800008010161042020772068C069800720468D
:101F900002D0FFF7AEFF04E000F086F8204600F024
:101FA00029F9257720680169C943C90617D4C16892
:101FB000C943C90613D46FF01001016108202077CE
:101FC0002068C06910F4407F204602D0FFF791FFDF
:101FD00004E000F069F8204600F00CF9257720684D
:101FE0000169C943C90708D1C168C943C90704D1F8
:101FF000891E0161204600F04DF920680169C9433E
:10200000090609D4C168C943090605D46FF08001E7
:1020100001612046FFF792FD20680169C943490626
:1020200009D4C168C943490605D46FF04001016174
:10203000204600F063F920680169C94389060BD482
:10204000C168C943890607D46FF0200101612046A9
:10205000BDE87040FFF773BD70BD000000B585B0EE
:102060000021009101910291039100680B4988427F
:1020700011D10B48816941F0040181618069694691
:1020800000F0040004904020009002200190039092
:102090000448FFF72FF905B000BD00000004004020
:1020A0000010024000080140704770B5044690F8E7
:1020B0003C000D4601280AD0012084F83C0042B1C2
:1020C000042A18D0082A2AD00C2A4DD139E002203F
:1020D00070BD206801F09AF92068816941F008011B
:1020E00081612068816921F0040181612068816932
:1020F0002A69114311E0206801F0B0F92068816974
:1021000041F4006181612068816921F4806181610D
:10211000206881692A6941EA0221816124E02068FE
:1021200001F0C8F92068C16941F00801C161206867
:10213000C16921F00401C1612068C1692A691143A4
:1021400011E0206801F0E2F92068C16941F4006102
:10215000C1612068C16921F48061C1612068C169E1
:102160002A6941EA0221C161002084F83C0070BD67
:1021700010B5040003D094F83D0010B107E0012031
:1021800010BD002084F83C00204600F01FF802201B
:1021900084F83D00211D206801F0E2F8012084F858
:1021A000460084F83E0084F83F0084F8400084F83C
:1021B000410084F8420084F8430084F8440084F825
:1021C000450084F83D00002010BD000008B50068FF
:1021D0000649884208D10648C16941F00201C1613F
:1021E000C06900F00200009008BD0000000400403B
:1021F000001002407047000010B50446022249B1A9
:1022000004290ED0082913D094F84100012816D0D3
:10221000012010BD94F83E000128F9D184F83E2039
:102220000FE094F83F000128F2D184F83F2008E045
:1022300094F840000128EBD184F8402001E084F8B4
:1022400041200122206801F0C1F80F49206888422E
:1022500003D1426C42F4004242642068884208D0B4
:10226000B0F1804F05D00949884202D00849884220
:1022700004D1816801F00701062903D0016841F00B
:1022800001010160002010BD002C0140000400404D
:102290000008004010B5154900680968884223D13C
:1022A000134801780C291FD2DFE801F01E1E1E061C
:1022B0001E1E1E1E1E1E1E1A0E490988C82908D879
:1022C0000D48406AFEF70DFCBDE8104080B200F0FA
:1022D000BDBC01210170BDE81040002000F0B0BC81
:1022E000BDE8104000F0C0BB10BD0000A80E0020EB
:1022F00004000020060000203800002070477047CE
:1023000070B5026804461068D168536910F00F0F69
:1023100052D003F0010501F490762E435FD0C2073E
:1023200005D0CA0503D5E26B42F00102E263420721
:1023300005D5DA0703D0E26B42F00202E2638207BE
:1023400005D5DA0703D0E26B42F00402E26302072C
:1023500007D501F020022A4303D0E26B42F00802C5
:10236000E263E26B002A33D0800604D5880602D5EA
:10237000204601F026F920684069E16BC0F3801027
:10238000090700D428B3204601F00DF920684169FF
:1023900049061AD5416921F040014161606BA0B145
:1023A0002D494163606BFEF747FF002810D0606B3A
:1023B000416BBDE870400847830610D58B060ED5EB
:1023C0002046BDE8704001F0FCB82046FFF797FFBB
:1023D00070BD2046FFF793FF0020E06370BD030649
:1023E0002BD50B0629D594F839002128F6D1A06801
:1023F000B0F5805F01D12069B0B1206A411C216233
:10240000216800784860E08C401E0004000CE084E5
:10241000E4D12068C16821F08001C1602068C168F2
:1024200041F04001C16070BD206A0088C0F308001F
:102430005060206A801C2062E5E74006F3D548061C
:10244000F1D5D168204621F04001D160202184F8E7
:10245000391000F084F970BD9735000870B504009C
:1024600004D094F83900002510B106E0012070BDB9
:1024700084F83850204600F023F8242084F83900EE
:102480002068C16821F40051C160204601F0E0F8E5
:102490002068016921F4904101612068416921F0BF
:1024A0002A0141612068C16841F40051C160E563BF
:1024B000202084F8390084F83A00002070BD000024
:1024C000F0B585B00024009401940294039403684D
:1024D000424F022042490322424D4602BB4225D1CF
:1024E0008B6943F480438B618B6903F480430493CD
:1024F0008B6943F004038B618969039201F0040145
:1025000004910102CDE9001069462846FEF7F2FE6B
:10251000CDE90064694628460294FEF7EBFE0022EE
:1025200011462520FFF748F8252028E02E4FBB4212
:1025300029D1CB6943F40033CB61CB6903F4003379
:1025400004938B6943F004038B618969039201F062
:10255000040104910421CDE9001069462846FEF7E4
:10256000C9FE0820CDE90004694628460294FEF71A
:10257000C1FE002211462620FFF71EF82620FFF795
:102580000DF805B0F0BD194DAB42FAD1CB6943F45B
:102590008023CB61CB6903F4802304938B6943F0E0
:1025A00008038B618969124D01F00801CDE903210F
:1025B000CDE9006069462846FEF79CFEE814CDE9A7
:1025C0000004694628460294FEF794FE0022114654
:1025D0002720FEF7F1FF2720D1E700000038014057
:1025E0000010024000080140004400400048004044
:1025F000000C014090F83A30202B22D1F9B1F2B111
:1026000090F83830012B1CD081628285C285002170
:10261000C163222280F83A2080F838100168CA6825
:1026200042F48072CA6001684A6942F001024A615C
:102630000068C16841F02001C1600020704701209E
:10264000704702207047000070B5114904460068C9
:10265000096801260F4D884203D12E700E4800F004
:10266000E9FD0E49206888420BD1FEF739FF0C497D
:10267000086000F0C3FC07490122491D0948FFF723
:10268000B9FF094920680968884200D16E7070BDA1
:10269000800F00201C000020100B00200044004090
:1026A00054000020C00F0020001000202DE9F84346
:1026B000044690F839001F4616460D4620284CD196
:1026C000C5B1BEB194F83800012846D0012084F885
:1026D00038004FF00008C4F83C80212084F839000D
:1026E000FEF7FEFEA6848146E684A068B0F5805F12
:1026F00003D004E00120BDE8F883206928B12E460C
:102700005FF0000584F838800EE00026FAE78021AB
:10271000204600F0F9FFA0B9AEB116F8010B216810
:102720004860E08C401EE084E08C4B464FF0000295
:1027300000970028EBD14FF04001204600F0E4FF65
:1027400030B10320D7E735F8020BC0F30800E6E705
:10275000202084F839000020CDE70220CBE7704725
:10276000FEE700002DE9F04786B000242C480094D5
:10277000019402940394816941F01001816181699F
:1027800001F010010491816941F0200181618169AA
:1027900001F020010491816941F0040181618169A6
:1027A00001F004010491816941F0080181618069AF
:1027B000DFF8708000F008004FF40057049000220A
:1027C00039464046FEF786FEDFF85C900022102175
:1027D0004846FEF77FFEDFF854A0002239465046F7
:1027E000FEF778FE0226012500970396CDE90154F5
:1027F00069464046FEF77EFD1020CDE90005CDE993
:10280000024669464846FEF775FD00970396CDE9F6
:10281000015469465046FEF76DFD06B0BDE8F087ED
:10282000001002400010014000080140000C01406F
:1028300010B586B0002416480094019402940394C5
:1028400004944FF08041059401606321C0E90114B4
:1028500040F60F61C0E903148461FFF7A5F908B1E0
:10286000FEF7E8FC4FF48050009069460848FFF7F7
:1028700011FA08B1FEF7DEFC049404A9044805949B
:10288000FFF75EF9002801D0FEF7D4FC06B010BDBA
:10289000A80E002030B589B0002407941C2168469A
:1028A0000894FDF76EFC15481349602580E8320056
:1028B00042F20F71C0E903148461FFF759FC08B1BB
:1028C000FEF7B8FC079407A90C480894FFF738F9FD
:1028D00008B1FEF7AFFCCDE900540294002269462E
:1028E00006480494FFF7E1FB08B1FEF7A3FC034898
:1028F000FFF7B4FB09B030BD00040040F00E00202B
:1029000010B58CB024216846FDF73BFC0024164826
:10291000099414490A94C0E900144FF6FF71C0E904
:102920000241046184610320CDE900040120CDE966
:1029300002040494CDE90540079469460A480894C6
:10294000FFF713FA08B1FEF775FC099409A90648C8
:102950000A94FFF7F5F8002801D0FEF76BFC0CB0E5
:1029600010BD000000080040380F00200C4810B5D2
:102970000A4901604FF4E1314160002181600C227D
:10298000C160C0E904128161C161FFF767FD0028E1
:1029900003D0BDE81040FEF74DBC10BD003801402B
:1029A000800F00200C4810B50A4901604FF4E13156
:1029B0004160002181600C22C160C0E90412816184
:1029C000C161FFF74BFD002803D0BDE81040FEF7C2
:1029D00031BC10BD00440040C00F00200C4810B5B1
:1029E0000A4901604FF4E1314160002181600C220D
:1029F000C160C0E904128161C161FFF72FFD0028A9
:102A000003D0BDE81040FEF715BC10BD00480040E3
:102A100000100020FEE7000010B50F48FFF70EF988
:102A200000210E48FFF7E8FB00210D48FFF71AFAD6
:102A300004210B48FFF716FA0A4800F0C7F90023F3
:102A40001A464FF07E51074800F0B0F9BDE810403B
:102A5000012000F0D5B80000A80E0020F00E0020E4
:102A6000380F00204C0100202DE9F047DFF870A15D
:102A70005C4D5D4CDAF80000406AE860616A206BEA
:102A8000FEF7DAF816D8D4F83080E76841463846C1
:102A9000FDF7C7FD4146FDF7C4FDFEF709F8FDF758
:102AA000DBFF064601213846FDF72BFE4146FDF7C8
:102AB000B8FD3EE0A16A206BFEF7BEF80ED827698C
:102AC000216B3846FDF7ADFD6169FDF752FDFDF75D
:102AD000EFFFFDF7C1FF0646AF602DE0D4E90B1014
:102AE000FEF7AAF827D8D4F83090E7694946384667
:102AF000FDF797FDD4F81880064649464046FDF795
:102B000090FD4946FDF78DFD3146FDF732FD216A06
:102B1000FDF72FFDFDF7CCFFFDF79EFF06460121D7
:102B20004046FDF7EEFD4946FDF77BFD3946FDF7D2
:102B300020FDA86000E0A6683046FDF7D2FF80B215
:102B4000FEF743FB06462861E868FDF78EFF07465F
:102B50003046FDF78AFF0146244B3A46244800F0F0
:102B6000BDF8FDF7A5FF00B2224E6860002803DB28
:102B7000012002E0404205E0002000F041F86868D2
:102B80000028F7DB316880B24863D4E90B10FEF708
:102B90005DF80CD2DAF80010002048626860A86086
:102BA0002063012028703168002048630BE0A88969
:102BB00080B2FEF718FB0E4A698802EB4102491CFD
:102BC000A2F8C0016980206BFDF7D7FF0A4A0B4BC2
:102BD000FDF7A3FDFEF714F82063BDE8F0870000C1
:102BE000380F002004000020DC0A00200AD7233C14
:102BF0004C010020F00E00207B14AE47E17A843FA8
:102C000070B50D4B0D4D4FF4005468B1012812D131
:102C1000002221461846FEF75DFC01222146284687
:102C2000BDE87040FEF756BC012221461846FEF76B
:102C300051FC0022F2E770BD000C01400010014081
:102C40000149096848637047F00E002070B51D49BE
:102C50000968496A1C4CE160FEF7B7FA0546206135
:102C6000E0684FF6E851884203D94FF6FF71081A21
:102C7000E060FDF7FAFE06462846FDF7F6FE01463F
:102C8000124B3246124800F029F8FDF711FF00B24E
:102C9000104D6060002803DB012002E0404205E0A7
:102CA0000020FFF7ADFF60680028F7DB296880B2DD
:102CB0004863074A6088A18902EB4002401C1186E4
:102CC000608070BD380F0020040000200AD7233C2C
:102CD0004C010020F00E0020704700002DE9FC5F41
:102CE00099460B46044611461846FDF794FC0546E6
:102CF0002D4801210560A7683846FDF702FD804692
:102D0000019049466068FDF78CFC4946FDF789FC57
:102D10008246564601214846FDF7F3FC834621686A
:102D2000FDF77FFC31460090FDF723FC4146FDF79F
:102D300020FC6061814602213846009EFDF7E1FCDF
:102D400001465046FDF767FC3146FDF764FC8046BE
:102D5000A0610198C4E9070B06465F463846A16AA0
:102D6000FDF75FFC834630462169FDF75AFCE668B3
:102D7000824631464046FDF754FC80462946484687
:102D8000FDF74FFC4146FDF7F4FB5146FDF7F1FB23
:102D90005946FDF7EEFB3946FDF775FC6062A0620F
:102DA000C4E90356BDE8FC9F0000002010B50C46A6
:102DB000034600F00BF8C3E9004203499C604FF45E
:102DC00000400968486210BD380F00200021C16032
:102DD000016141618161C1610162416281620148B9
:102DE00001607047000000202DE9F04FDFF85481AA
:102DF00093B0D8E90023D8E90801FDF72FFDA8F129
:102E000080040F460646C8E90201D4E91E010122EA
:102E10000D911090FDF709FE0791DFF82CB1D4E970
:102E20001C2381468A464FF0204528465946FDF727
:102E30001BFD2A465B46FDF717FD0D4604901290D8
:102E400001214248FDF75DFC1190FDF796FECDE9AA
:102E50000201D4E91A23FDF707FD834601912B46B1
:102E6000129AFDF75AFC4A465346FDF756FCFDF709
:102E7000C7FEE0640B900199DA468B4602220D9959
:102E80001098FDF7D2FD02460B4629460498FDF73F
:102E9000E5FC52465B46FDF7E1FCFDF7B1FE20651F
:102EA0000D9048460799FDF7ABFE05466065119801
:102EB000A0650246DDE902010A908B461046216EAC
:102EC000FDF7AFFBFDF759FE02908A462846A16C3C
:102ED000FDF7A7FBFDF751FE04900191616C0C9189
:102EE0000D98FDF79EFBFDF748FE054689460B98B9
:102EF000FDF743FE32463B46FDF7B6FC2A464B46FD
:102F0000FDF70BFC019B049AFDF707FC5346029A60
:102F1000FDF703FC5B460A9AFDF718FDFDF770FE0E
:102F2000E065054620660C98A06430463946FDF7FA
:102F300067FE60642846FDF720FEC8E9060113B06D
:102F4000BDE8F08F000100209999C93FCDCC4C3EDF
:102F5000704700007CB56420FEF7BAF9234C244D7D
:102F6000207805F18006686020B90020C6E90600D7
:102F7000C6E908006078A8606088FDF78CFD002233
:102F80001C4BC6E90801FDF723FE07D2D6E908016C
:102F90000022194BFDF762FCC6E9080100200090F1
:102FA0006A460190211809791154401C0828F9DB60
:102FB0001046FEF706F9C5E91A0100202118097B21
:102FC0001154401C0828F9DB6846FEF7FAF8C5E9F9
:102FD0001C0100202118097D1154401C0828F9DB30
:102FE0006846FEF7EEF8C5E91E017CBD80100020A2
:102FF000800000200000E0400000F04070B50C4D63
:103000000C4C69790A2904D0E8682154401CE86016
:1030100070BD084908A000F0F3FB064800F0BAFBB9
:103020000021E96001E02154401CC828FBDB70BD91
:103030001C000020220B002044617461206E686136
:103040006E2064756F633A2025730A007047000094
:103050002DE9FF5FDFF814918A46A9F51674002167
:10306000DDF83CB00B4604F1640504F1C80604F534
:10307000967704F5C87C04F5FA7800BF09F80130AA
:1030800063546B5473547B540CF8013008F80130CE
:10309000491C6429F2DB024635A1364800F0C0FB2A
:1030A0003448524632A1643000F0BAFB314830A1B6
:1030B000C830029A00F0B4FB2DA12F48039A00F00B
:1030C000AFFB2D482AA164300E9A00F0A9FB2748D7
:1030D0005A4627A1643800F0A3FB28A12348FDF736
:1030E0005BF824492148FDF757F827A11F48FDF751
:1030F00053F820491D486431FDF74EF825A11B48BF
:10310000FDF74AF81C4919486439FDF745F824A130
:103110001648FDF741F818491448FDF73DF823A17A
:103120001248FDF739F8144910486431FDF734F8B6
:1031300021A10E48FDF730F80C490C486439FDF721
:103140002BF820A10948FDF727F808491EA000F038
:1031500057FB0648FDF72CF804B082B2BDE8F05FDB
:103160004FF47A7301491948FFF7A0BA420E0020C4
:1031700025640000EA0B0020160D00207B22534539
:103180005450223A22000000222C225353223A2289
:1031900000000000222C22414354223A2200000069
:1031A000222C2247544B50223A220000222C224744
:1031B000544B49223A220000222C2247544B4422ED
:1031C0003A220000227D0A0025730000C00F002073
:1031D000122202490248FFF70DBA0000100B00202E
:1031E000800F00201C2202490248FFF703BA0000AA
:1031F000801000200010002010B512220749084856
:10320000FFF7F8F91C2207490748FFF7F3F9BDE873
:103210001040012205490648FFF7ECB9100B0020C9
:10322000800F0020801000200010002021000020CE
:10323000C00F002010B5134A01781278914220D1B6
:103240001049407C491C097888421AD10422012186
:103250000D4802F0A1FD0B4C0068A41E0322206162
:103260000521094802F098FD0188E18080782072EC
:1032700008221146044802F08FFD01686161406830
:10328000A06110BD1E000020100B00202DE9F041B0
:10329000074615460E46122000F082FB0F490446F1
:1032A0004FF47A738A7802703868C4F80100308865
:1032B000A4F80500B078E0712868A0606868E06054
:1032C00008792074C8786074122221460448FFF7F8
:1032D000EDF92046BDE8F04100F0DEBA1C00002008
:1032E000800F002030B5002306E0C45CCD5CAC420A
:1032F00001D0002030BD5B1C9342F6DB012030BDC5
:10330000FEF7F4B830B58FB028216846FCF739FFD6
:1033100014210AA8FCF735FF01210804CDE90010AB
:103320000024029402250491CDE907504FF4E010E7
:1033300009906846FEF75EFA0F20CDE90A0568029B
:10334000CDE90C4002210AA80E94FEF767F90FB0F0
:1033500030BD70470148FEF7CDBD0000A80E00202B
:10336000F0B50268164B174C174D4FF08047984246
:1033700005D0B84203D0A04201D0A84203D122F028
:1033800070064A683243984205D0B84203D0A04242
:1033900001D0A84203D122F44074CA6822434C6988
:1033A00022F08002224302608A68C2620A68826256
:1033B000984201D10969016301214161F0BD00001A
:1033C000002C0140000400400008004010B501F04E
:1033D0001F030121046A99408C430462016A9A40E8
:1033E0001143016210BD10B5846842EA032224F43F
:1033F0007F440A432243826010BD826822F070023B
:103400000A4342F0070181607047000030B5026A4C
:1034100022F001020262026A4368846924F07305A3
:103420000C682C4322F002058A682A430A4DA84200
:103430000BD122F00805CA6823F440732A434D6972
:1034400022F004021D438B692B4343608461496869
:103450004163026230BD0000002C014030B5026AB9
:1034600022F010020262026A436884690D6824F443
:10347000E64444EA05248D6822F0200242EA05125F
:103480000B4DA8420ED1CD6822F0800242EA05120F
:103490004D6923F4406343EA85038D6922F04002BD
:1034A00043EA85034360846149688163026230BDF9
:1034B000002C014030B5026A22F480720262036A75
:1034C0004268C46923F4007324F073050C682C432C
:1034D0008D6843EA05230C4DA8420ED1CD6823F434
:1034E000006343EA05234D6922F4405242EA051283
:1034F0008D6923F4806342EA05124260C461496821
:10350000C163036230BD0000002C014030B5026A87
:1035100022F480520262046A4268C3690D6823F48F
:10352000E64343EA05238D6824F4005444EA053455
:10353000064DA84204D14D6922F4804242EA851228
:103540004260C36149680164046230BD002C0140DF
:1035500010B5036A046A24F001040462846924F04B
:10356000F00444EA021423F00A020A43846102626E
:1035700010BD10B5036A23F0100303628369046A67
:1035800023F4704343EA023224F0A00343EA01111A
:103590008261016210BD10B5406A0021C185C184FD
:1035A000FEF7ADFE10BD0168CA6822F49072CA60D1
:1035B00001684A6922F001024A61202180F83A102C
:1035C000704710B590F83A10222901D0022010BDA2
:1035D00082684FF480539A4201D1016921B1816A16
:1035E0009A421BD04AB10AE00268816A5268C2F36B
:1035F00008020A80816A891C08E0026972B10268C7
:10360000526802F07F020A70816A491C8162C18D92
:10361000491E0904090CC18503D016E002685268EE
:10362000F1E70168CA6822F02002CA600168CA682E
:1036300022F48072CA6001684A6922F001024A617C
:10364000202180F83A10FEF7FFFF002010BD000097
:1036500070B5044600680169E26821F440511143E5
:1036600001612169A0680843616908432168CA684B
:1036700041F20C639A430243CA6020684169A2691F
:1036800021F44071114341611E492068884202D1F2
:10369000FEF76AF801E0FEF757F800EBC00101EB16
:1036A0000012606864218000B2FBF0F3B3FBF1F319
:1036B0006FF018067343B2FBF0F5B2FBF0F605EBC2
:1036C0008305322303EB0515B5FBF1F5B6FBF1F6E7
:1036D00005F0F00505EB0615B2FBF0F6B2FBF0F0D5
:1036E000B0FBF1F06FF01802504306EB800003EBE3
:1036F0000010B0FBF1F0216800F00F002844886052
:1037000070BD0000003801402DE9F0419846174691
:103710000E460446069D1DE0681C1BD02DB1FDF72A
:10372000DFFEA0EB0800A84214D92068C16821F48C
:10373000D071C1602068416921F001014161202000
:1037400084F8390084F83A00002084F83800032017
:10375000BDE8F0812068006836EA000004D000204F
:10376000B842D9D00020F3E70120F9E70148FEF77D
:10377000C7BD0000800F00200148FEF7C1BD00005A
:10378000C00F00200148FEF7BBBD00000010002064
:10379000FEE7000010B500F011FE104C206280B171
:1037A0000FA000F02DF811A1206A00F0F9FD00280B
:1037B000206A0EA10AD000F0F3FD0069FCF7CCFEF0
:1037C00006E0BDE810400AA000F01AB800F0E8FDDD
:1037D000206ABDE8104000F0BFBD000038000020A6
:1037E000204A534F4E206F6B0D0A0000000000006E
:1037F000204A534F4E204552524F520D0A000000AE
:103800000FB4054B10B503A9044A029800F0F0F973
:1038100010BC5DF814FB00000D4500083C010020C1
:103820000FB4084B10B504A902AA039800F0E0F900
:10383000044602A9002000F072FD204610BC5DF88D
:1038400014FB00001F430008490050EAC12018BFC4
:1038500004204A0D18BF40F0010040F2FF72B2EBA5
:10386000515F08BF40F00200012808BF05207047E3
:103870000907090E002804DB00F1E02080F800149D
:10388000704700F00F0000F1E02080F8141D704731
:10389000004870474801002030B528B1144C031F80
:1038A000002021680A4605E0084630BD9A4203D848
:1038B00010465268002AF9D1002800D041680BD088
:1038C0000468A3EB0005A54204D11B681C44034611
:1038D000046002E0436000E023603AB11C68D51A3E
:1038E000A54203D115682C441C6052685A6030BD53
:1038F000400100202DE9F0414F1E00EBC7010446B6
:10390000D1E9000115461E4637F006020DD02A46C1
:103910003346FCF7A9FF7F1E04EBC703D3E900235E
:10392000FCF7FBFE37F00602F1D1022F25D0042F61
:1039300013D0062F18BFBDE8F0812A463346FCF7A6
:1039400093FFD4E90A23FCF7E8FE2A463346FCF746
:103950008BFFD4E90823FCF7E0FE2A463346FCF748
:1039600083FFD4E90623FCF7D8FE2A463346FCF74A
:103970007BFFD4E90423FCF7D0FE2A463346FCF74C
:1039800073FFD4E90223FCF7C8FE2A463346FCF74E
:103990006BFFD4E90023BDE8F041FCF7BEBE000098
:1039A0002DE9F04782460F4C10480D4E0E4F001B7C
:1039B0004FF0000820F007054FF0010900221146E2
:1039C000504600F0EDFD002802D1306810B1002013
:1039D000BDE8F0873C60C4E90058C6F80090EDE708
:1039E00044010020C410002040010020C01200202B
:1039F0000022134610460149FCF7A8BF0000F03F23
:103A0000FCF78BBE0022134610461146FCF79EBF02
:103A100040F2013200204FF0E041FDF706B800000F
:103A2000024A00201107FDF700B8000001FDFFFF6A
:103A300002E008C8121F08C1002AFAD17047704777
:103A4000002001E001C1121F002AFBD170470000D5
:103A50000149086070470000480100202DE9FF5F20
:103A600082B00021DDE90430020DDDF840B00343EF
:103A700018D044F61050A2F2FF32424315141198A8
:103A800001281FD0A5EB0B00401C5FEA000A4FF095
:103A900000064E4FDFF83891B046504615D5CAF1B2
:103AA000000413E0119801244AA3012801D16FEA10
:103AB0000B010298119AC0E90031C0E9024206B038
:103AC000BDE8F09FCBF10000DFE704460021404A4B
:103AD000491842EB0450CDE9001012E0E00707D08E
:103AE00032463B4640464946FCF7BEFE8046894684
:103AF00032463B4610461946FCF7B6FE06460F46D0
:103B00006410002CEAD1DDE90401DDE90023BAF1FB
:103B1000000F06DAFCF7A8FE42464B46FCF7A4FE6F
:103B200005E0FCF713FF42464B46FCF70FFF044647
:103B30000E460022284BFDF74BF803D84FF0FF301C
:103B4000014607E00022254B20463146FCF7E5FD03
:103B5000FDF734FA102409E0002C0ADB0A220023C6
:103B6000FDF794F8039B30321A55641E50EA0102A7
:103B7000F2D1641C039AC4F111031444119A012A6E
:103B800003D0012208430DD10AE0084304D00020ED
:103B90004FF0110B119072E7A3EB0B056D1E0DE0BA
:103BA0005B4504DD4FF0000205F1010504E003DA96
:103BB0004FF00002A5F10105002AECD002981199FE
:103BC000C0E90231C0E9004579E700000000144077
:103BD0000000F03F300000000000F0430000E03F34
:103BE00030380A2801D201207047002070470000B9
:103BF0002DE9FF4F95B09B468946064600250FE20A
:103C0000252877D100242746F84A0121059400E0B1
:103C1000044316F8013F203B01FA03F01042F7D1AC
:103C200030782A2811D06FF02F033078A0F13002BD
:103C3000092A16D8059A44F0020402EB820203EB2B
:103C400042021044761C0590EFE759F8042B0592C8
:103C5000002A03DA504244F40054059044F0020470
:103C6000761C30782E2816D116F8010F44F0040483
:103C70002A280DD06FF02F023078A0F13003092BE5
:103C800009D807EB870302EB4303C718761CF3E759
:103C900059F8047B761C30786C280FD006DC4C2851
:103CA00017D068280DD06A2814D104E0742810D0E9
:103CB0007A280FD10DE044F400140AE044F4801493
:103CC00001E044F440147278824202D104F5801479
:103CD000761C761C307866280BD013DC582877D0F9
:103CE00009DC002875D04528F6D04628F4D04728AE
:103CF0001AD19DE118E0632835D0642879D0652871
:103D000012D195E1702873D008DC6728F1D06928BA
:103D10006FD06E280DD06F2806D1B5E073282CD057
:103D2000752875D0782874D05A46179990476D1C1D
:103D300075E1C4F30250022809D003280DD0D9F848
:103D4000001004280DD00D6009F1040967E1D9F8CD
:103D50000010EA17C1E90052F6E7D9F800100D800B
:103D6000F2E70D70F0E719F8041B8DF80010002041
:103D70008DF80100EA46012003E059F804AB4FF04A
:103D8000FF3061074FF0000102D40DE008F101019E
:103D90008846B9420FDA8045F8DB1AF80810002986
:103DA000F4D108E008F1010188468142FADB1AF8F3
:103DB00008100029F6D105985B46A0EB08072146BC
:103DC0003846179A00F094FA284400EB080507E0FB
:103DD0004DE029E10DE01AF8010B5A46179990477A
:103DE000B8F10108F7D25B4621463846179A13E12D
:103DF00042E00A220092C4F302524FF0000A022A63
:103E000008D059F804CB032A4FEAEC710AD00DE030
:103E100029E02AE009F1070121F00702F2E802C1D6
:103E2000914609E00FFA8CFC4FEAEC71042A03D1A9
:103E30004FFA8CFC4FEAEC71002907DA0A460021A0
:103E4000DCF1000C61EB02012D2202E0220504D519
:103E50002B228DF80420012203E0E20701D020226A
:103E6000F7E7904659E00A2102E010220DE0102108
:103E70004FF0000A00910BE010224FF0000A44F0CE
:103E800004040827009203E008224FF0000A009281
:103E9000C4F30252022A05D059F804CB0021032AA8
:103EA00008D009E009F1070121F00702F2E802C198
:103EB000914605E01FFA8CFC042A01D10CF0FF0C9E
:103EC0004FF00008220728D5702806D0009B83F009
:103ED000100353EA0A0305D00EE040228DF80420B7
:103EE000012208E05CEA010206D030228DF80420AD
:103EF0008DF8050002229046009B83F0080353EAE8
:103F00000A030AD15CEA010201D1620705D5302219
:103F10008DF804204FF001087F1E582804D034A0EB
:103F200003900EA802900DE036A0F9E753466046D4
:103F3000009AFCF7ABFE84460398825C0298401E10
:103F4000029002705CEA0100F0D1029806A9081AFA
:103F500000F1200A600702D524F4803400E0012734
:103F6000574502DDA7EB0A0000E0002000EB0A0144
:103F7000009005984144401A0590E00306D45B4642
:103F80002146179A059800F0B3F90544002706E08A
:103F900001A85A46C05D179990476D1C7F1C474584
:103FA000F6DBE0030CD55B462146179A059800F036
:103FB0009FF9054404E030205A46179990476D1C3C
:103FC0000099481E00900029F5DC08E0029802994B
:103FD0005A460078491C0291179990476D1CBAF116
:103FE0000001AAF1010AF1DC65E1000009280100E5
:103FF000303132333435363738396162636465665F
:104000000000000030313233343536373839414220
:10401000434445460000000000F058F90544761C72
:10402000307800287FF4ECAD19B02846BDE8F08F59
:10403000620700D4062709F1070222F0070CFCE80A
:104040000223E14603F000485FEA080C02D00FF2B9
:10405000702C0DE05FEA045C02D50FF2682C07E0DB
:104060005FEAC47C02D00FF2602C01E0AFF2700C6A
:104070004FF0FF3823F00043CDF850C065280CD036
:1040800006DC452809D046281DD047283DD13DE013
:10409000662818D067287ED138E00021112F01DB77
:1040A000112000E0781CCDE9000106A90EA8FFF759
:1040B000D5FCDDE90F010E9A03910021009207F172
:1040C000010A04914DE04FF000400097CDE9011046
:1040D00006A90EA8FFF7C2FCDDE90F0203920E9BB2
:1040E00011990022DDF80CA00093049211B9791CFB
:1040F00000EB010AB7EB0A0004D4C0F1FF3007F16E
:10410000010A0490AAEB0700019044E0012F00DAB5
:1041100001270021112F01DD112000E03846CDE9F3
:10412000000106A90EA8FFF799FCDDE90F010E9A20
:104130000391002104910092BA4621070CD40399FF
:10414000514500DA8A46BAF1010F05DD009AAAF15D
:104150000101515C302908D0B84202DA10F1040F95
:1041600006DA0121CDE9011015E0AAF10101E9E724
:10417000002805DC049901440491AAEB000102E047
:10418000411C514500DD8A460499401A401C0190AB
:104190004FF000400290200704D40198504501DB05
:1041A000CDF8048000208DF84F0002980DF14F07E4
:1041B000B0F1004F25D02B200E9002984FF002084E
:1041C00000280CDA404202902D200E9007E00A21D0
:1041D0000298FCF745FD3031029007F8011DB8F157
:1041E0000001A8F10108F2DC02980028EFD1791E45
:1041F0000E980870307800F0200040F0450007F875
:10420000020D12A8C01B00F107081498007800B135
:10421000012000EB0A01019801EBE071059841448F
:10422000401A401E0590E00306D45B462146179ACB
:10423000059800F05DF805441498007818B15A46C6
:10424000179990476D1CE00324D55B462146179AC9
:10425000059800F04DF805441CE00498002807DBA1
:10426000DDE90301884203DD0098405C179901E015
:10427000179930205A469047049805F10105401CD3
:1042800004900198401E019004D12E205A4617999F
:1042900090476D1CBAF10001AAF1010ADDDC05E0CE
:1042A00017F8010B5A46179990476D1CB8F1000199
:1042B000A8F10108F4DC5B462146179A0598ABE6A5
:1042C0002D0000002B000000200000002DE9F0412F
:1042D000044600251E461746880404D405E03946E6
:1042E0002020B0476D1C641EF9D52846BDE8F0813A
:1042F0002DE9F041044600251E469046C80301D52D
:10430000302700E02027880404D505E041463846E0
:10431000B0476D1C641EF9D52846BDE8F0810A68D7
:10432000531C0B601070704710B530B1036823B197
:10433000D0E90121914201D204E0002010BD491CC6
:10434000816020B1914202D25C5C202CF7D991426D
:10435000F4D1491E816010BD70B504460F4E19E0BE
:10436000A0892568C0050AD4A06820B1FFF7F4FF32
:10437000A089C00503D4206908B171688847A08965
:10438000800503D4206A08B17168884771682046A7
:1043900088472C46002CE3D170BD0000740000203B
:1043A000002200F0BFB810B501682820884704003B
:1043B00002D02821FBF7E5FE204610BD0022114661
:1043C00000F06EB82DE9F04788B00F4604469A46D3
:1043D00016461C216846FBF7D4FE2F480025002C0A
:1043E0000560456055D08146E7B3CDE900470295A9
:1043F000D9E90212D9F810000491CDE9052009F19C
:104400000800FFF7D0FF5FEA00082BD000986F4646
:1044100008B1029808B100270BE00198042808D9D8
:1044200003221EA10098FBF7D8FE10B90298C01C09
:1044300002903846FFF778FF0146404600F0D8FE6C
:1044400068B1BAF1000F13D06846FFF76DFFDDE9E0
:104450000101814203D202990098405C40B140467C
:10446000FFF77AFFDDE9011088420AD205460BE02A
:104470001EB10299009808443060404608B0BDE87B
:10448000F087081E00D0451E0EB160193060C9E9E2
:1044900000450020F2E700006C000020EFBBBF00E9
:1044A00070B515460E46040009D0FBF781FE411C8D
:1044B0002B4632462046BDE87040FFF783BF002000
:1044C00070BD000070B50D480D4C05680D48A56025
:1044D0000068FCF7CAFA29466060FCF79CF80A4DB0
:1044E000E0602868FCF7FDFA20616868FCF7F9FADB
:1044F0006061A868FCF7F5FAA06170BD00000020BB
:1045000038000020140000204C01002013B54FF6A5
:10451000FF73012269460248FEF7C8F800981CBDE7
:10452000001000202DE9F0418846A8B3B8F1000F33
:1045300033D084680AB90AE024686CB3216A59B39D
:104540004046FBF73CFE0028F6D120E024681CB36F
:10455000266A5FEA0805F9D0002EF7D0B54218D0D8
:1045600002E098B16D1C761C2878FBF7EBFD07463E
:104570003078FBF7E7FD87422878F2D0FBF7E2FDC1
:1045800005463078FBF7DEFD8542DFD124B1206A95
:1045900010B12046BDE8F081FFE70020FAE70000F7
:1045A0002DE9F0410B3020F00706104D19E020688E
:1045B000B04215D3B0420AD9871B201DD4F804801D
:1045C000FBF7C6FDA019C0E90078286004E0606828
:1045D0002860201DFBF7BCFD201D2660BDE8F08192
:1045E000251D2C68002CE2D10020F7E740010020B7
:1045F0002DE9F041FCF739FA144C8046D4E90C015E
:10460000E56AFBF7B6FF0746A16BFBF7B2FF014671
:104610003846FCF738F8064629464046FBF7FBFFCC
:104620003146FBF7FEFF2946FBF7A3FF054631465F
:104630004FF07E50FBF7EFFF3946FBF7F2FFC4E97E
:104640000B502846BDE8F041FCF74BBA8000002033
:104650000EB5FCF753FFFEF755FEFEF783F8FEF7A5
:1046600085F9FEF7E5F8FEF715F9FEF749F9FEF7CB
:1046700099F9FEF7B3F9FEF7BFFDFEF7CDF9FF4D4F
:1046800001202870FCF72CFFFD4CDFF8F8B34FF049
:104690000008A946E061FC4D2868022802D0FEF718
:1046A000A1FD67E0F94E307848B1FEF753FC4FF4B6
:1046B0007A70FCF70DFE86F80080FEF793FDF44853
:1046C0000068012811D0FCF79DFDFCF7C5F9F14900
:1046D000F14A0860F149C2F800800022C1E90022D5
:1046E000EF490968012925D03BE0FCF78BFDFCF779
:1046F000B3F9E8490860EA490968012916D1FCF7CD
:104700003CFA0022E74BFCF7AFF8E74AE74BFCF72F
:104710001DF90022E64BFCF719F9E64AC2E900014F
:10472000FCF712FAFFF764FFFEF75EFB01F0B0FB47
:10473000C8201DE0FCF721FA0022DA4BFCF794F8C0
:10474000D94ADA4BFCF702F90022D94BFCF7FEF804
:10475000D84AC2E90001FCF7F7F9FFF749FFFEF775
:1047600043FBD5480021C0E9001101F091FB642012
:10477000FCF7AEFD2868022820D0FCF7B1FEE16905
:10478000411A40F2DC50814218D3FFF79BFEE068EB
:10479000FCF7A7F90746A068FCF7A3F9064660688E
:1047A000FCF79FF9D4E90512CDE900123A463146EB
:1047B0002369FEF74DFCFCF793FEE061DFF8FCA2F5
:1047C0009AF80000002856D00422BDA1BE48FEF78A
:1047D00089FD18B1022089F800004AE00422BBA13B
:1047E000B948FEF77FFD08B1042140E00422B9A1D9
:1047F000B548FEF777FD08B1052138E00422B7A1DE
:10480000B148FEF76FFD08B1082130E00422B5A1E0
:10481000AD48FEF767FD08B1092128E00422B3A1E5
:10482000A948FEF75FFD08B10A2120E00422B1A1EA
:10483000A548FEF757FD08B1062118E00422AFA1F4
:10484000A148FEF74FFD08B1072110E00422ADA1F9
:104850009D48FEF747FD08B10C2108E00422ABA1FA
:104860009948FEF73FFD08B10D2100E0012189F8CC
:1048700000108AF8008099F800000E28BFF40BAFF2
:10488000DFE800F007084E07C010C7FB37363FFAD5
:10489000F9F800E7FEF79CFC28680228F9D1FEF73A
:1048A000A1FCF8E69B4A9C498748FEF7EFFC994D2E
:1048B000A879FCF7F0F802460B460020974900F073
:1048C00015FD07460E466878FCF7E5F83A4633468C
:1048D000FCF73CF807460E462878FCF7DCF83A4629
:1048E0003346FBF71AFFFCF78BF96062CBF82C001C
:1048F00057E2884A88497448FEF7C8FC02202860BD
:104900004FE205202860834A83496F48FEF7BEFCCA
:1049100061496248C1F800800021C0E9001140E20D
:104920007C4A7D496848FEF7B1FC7D484546C0F8A1
:1049300000805448FEF74AFA7A48006845627A488F
:10494000744F0580B879FCF7A6F8DFF8D0A10246CD
:104950000B460020514600F0C9FC06460D4678780B
:10496000FCF799F832462B46FBF7F0FF06460D465A
:104970003878FCF790F832462B46FBF7CEFEFCF772
:104980003FF9CBF80000B879FCF785F802460B46F2
:104990000020514600F0AAFC06460D46F878FCF7C8
:1049A0007AF832462B46FBF7D1FF05460E46B8781B
:1049B000FCF771F833462A46FBF7AFFEFCF720F907
:1049C000CBF80400B879FCF766F802460B460020E5
:1049D000514600F08BFC05460E467879FCF75BF8F3
:1049E0002A463346FBF7B2FF05460E463879FCF7F8
:1049F00052F82A463346FBF790FEFCF701F9CBF854
:104A00000800CEE1434A44492F48FEF73FFC03210A
:104A10007EE1002547462AE019482B4A43A1283069
:104A2000FEF7FEFE27800BEB4500A770144E008EAC
:104A30002C36010AB171F0713D480068FCF751F85D
:104A4000010A31717071280AB070F5703770C72093
:104A5000707032460A49101FFEF718FCA7622780C3
:104A6000A770E76228202763FCF732FC6D1C2E48F4
:104A700000885FE054E139E14DE162E0040000208C
:104A8000380000204C010020180000201D000020EC
:104A900084000020280100202001002018010020AF
:104AA0008800002000004E409A9999999999C93F31
:104AB0000090A04000010020100100201C000020F8
:104AC00053504944000000002C0000204354554E30
:104AD000000000005345435400000000535045447B
:104AE00000000000534552560000000053544F5040
:104AF0000000000047504944000000004353455463
:104B0000000000004352554E0000000047524D5334
:104B1000000000003000002022000020000024409F
:104B200014000020380F002006000020257300002C
:104B300000000020401E8542FFF66EAF8AF800702C
:104B40002DE19A4A9A499B48FEF7A0FB9A48FEF746
:104B50003DF99A49954DC1F800809949C1F8008006
:104B6000EE7806F00F00FBF780FF009026F00F00B4
:104B7000FBF77BFFAE7882463007000DFBF775FF31
:104B8000074630090003FBF770FF3946FBF7F1FCDD
:104B90005146FBF7EEFC0099FBF7EBFCDFF824A293
:104BA0000746CAF800006E7906F00F00FBF75DFFBC
:104BB000029026F00F00FBF758FF01902E79300786
:104BC000000DFBF752FF009030090003FBF74DFF8B
:104BD0000099FBF7CEFC0199FBF7CBFC0299FBF7A0
:104BE000C8FC0646CAF80400E879009000F00F00FF
:104BF000FBF73BFF0290009820F00F00FBF735FF1A
:104C00000190AD792807000DFBF72FFF00902809D0
:104C10000003FBF72AFF0099FBF7ABFC0199FBF7B8
:104C2000A8FC0299FBF7A5FC0546CAF808004FF05E
:104C3000FF313846FBF765FDCAE903064FF03F41F7
:104C40003046FBF7EEFC3146FBF7EBFC3946FBF751
:104C50001AFDCAF814004FF03F413846FBF7E1FC5B
:104C6000CAF8180039462846FBF7DBFC3146FBF74B
:104C70000AFD3146FBF77DFCCAF81C004FF0FF31FE
:104C80003046FBF73EFD3146FBF7CBFC3946FBF7E0
:104C9000FAFC314601900846FBF7C3FC00904FF048
:104CA0003F412846FBF7BDFC2946FBF7BAFC3946D5
:104CB000FBF7B7FC0099FBF7E6FC0199FBF7ABFCAF
:104CC000CAF8200039463046FBF7DDFC0746CAF833
:104CD000240031462846FBF7D6FC0146CAF82800D6
:104CE0003846FBF746FCCAE90B085AE02F4A304920
:104CF0003048FEF7CBFA32484546C0F800802E48CF
:104D0000FEF764F830480068456230480B210580A2
:104D100089F80010BFE48AF80080FEF759FABAE477
:104D200000252A4F35E0234AAFF200212848FEF73C
:104D300077FDA4F800800BEB450084F80280244E38
:104D4000B0F8C001361D010AB171F0712148006848
:104D5000FBF7C7FE010A31717071280AB070F57057
:104D600038883246801E010A31707070A2F12C0121
:104D7000101FFEF78BFAC4F82880A4F8008084F88E
:104D80000280C4F82C803220C4F83080FCF7A0FAEE
:104D90006D1C3888401E8542C5DB8AF80080FEF70E
:104DA00017FA012089F8000075E4000030000020A7
:104DB000220000202C0000204C01002010000020C8
:104DC00014000020DC0A0020380F0020060000201C
:104DD00060000020000000202DE9F041074600257A
:104DE000C8680C462E46B0F57A7F5BD2401CE06066
:104DF0002168A068095C5B2954D1401CA060204652
:104E0000FFF792FA4CB1D4E90110884203D222682C
:104E1000125C5D2A33D0884203D3A068401EA06094
:104E200040E0401E04F11008A0604046FFF7BBFAC6
:104E300098B30DB3306046600646A068401CA06081
:104E40002046FFF771FA2146304600F0D1F930B321
:104E50002046FFF769FA14B3D4E90110884203D25F
:104E60002168095C2C29E0D06268904217D2216841
:104E7000085C5D2813D102E005462E46DDE7E068B8
:104E8000401EE06005B16E602020C7E90250A068B6
:104E9000401CA0600120BDE8F081FFE715B1284665
:104EA000FFF75AFA0020F6E7034610B50020024645
:104EB000995CA1F13004092C01D830380AE0A1F145
:104EC0004104052C01D8373804E0A1F16104052C18
:104ED00008D857380844032A00D20001521C042A7B
:104EE000E6D310BD002010BD2DE9F04192B04FF087
:104EF000000506460C004FF02E03284610953CD0C6
:104F00002168D1B36A4627E027683944415C3429D7
:104F10001BD00ADCA1F12B07092F23D2DFE807F011
:104F20001522151722151515150038290DD006DC88
:104F300035290AD0362908D0372913D105E0392977
:104F400003D0452901D065290CD1115400E0135438
:104F5000401C3F2806D22CB1A168D4F804C00F1819
:104F60006745D1D31554904610A9104600F006FFAE
:104F70000F4610990546884503D1002012B0BDE8C0
:104F8000F081C6E90657114A114B28463946FBF70E
:104F90001FFE02D86FF000400DE000220D4B2846A6
:104FA0003946FBF7FDFD02D84FF0004003E02846EC
:104FB0003946FBF7AAFD70610820F060109AA168DD
:104FC000A2EB08000844A0600120D7E70000C0FF62
:104FD000FFFFDF410000E0C12DE9F0410746002658
:104FE000C8680C463546B0F57A7F78D2401CE06040
:104FF000002C74D0D4E90110884270D22168095C79
:105000007B296CD1401CA0602046FFF78DF9D4E9C4
:105010000110884203D22268125C7D2A4CD088425B
:10502000A0F10100A0605AD204F110084046FFF739
:10503000BAF9E8B3F6B1286045600546A068401C9F
:10504000A0602046FFF770F92146284600F049F895
:1050500078B32046FFF768F92869286200202861A4
:105060003CB3D4E90110884236D22168095C3A2960
:1050700032D102E006463546E0E7401CA0602046FB
:10508000FFF752F92146284600F0B2F888B12046D1
:10509000FFF74AF9D4E90110884203D22168095C7C
:1050A0002C29C3D06268904216D22168085C01E0C6
:1050B00011E011E07D280FD1E068401EE06006B1EC
:1050C00075604020C7E90260A068401CA060012014
:1050D000BDE8F08103E016B13046FFF73DF900204E
:1050E000F6E72DE9F84380468B6808684FF0000921
:1050F000C418CDF8009008680E46651CC15C641C9D
:1051000022296ED10022716808E0BCF15C0F04D145
:105110007F1C8F4265D2521C641C641C271A8F426C
:1051200004D294F800C0BCF1220FEED1271A8F42AE
:1051300057D22178222954D11844201A801A316973
:10514000401C884707004CD0009737E029785C293D
:1051500005D000986D1C00F8011B00902EE0022085
:10516000611B012939DB6A78662A14D008DC222AFF
:1051700012D02F2A10D05C2A0ED0622A2DD108E03E
:105180006E2A0ED0722A0ED0742A0ED0752A24D11F
:105190000DE0082200E00C22009901F8012B00919B
:1051A0000BE00A22F8E70D22F6E70922F4E76A4647
:1051B0002146284600F002FE78B10544A542C5D339
:1051C000009981F800901021C8E903173068201A6F
:1051D000401CB0600120BDE8F88317B17169384602
:1051E000884715B13068281AB0600020F3E7000046
:1051F00070B50C0005465ED0206800285BD0A16821
:1052000063680A1D9A4205D80844042231A1FAF7BE
:10521000E4FF78B3A0686268411D0126914206D878
:105220002168052208442DA1FAF7D7FF28B3A0680A
:105230006268011D914206D821680422084429A110
:10524000FAF7CBFFE8B1D4E90101814203D2226829
:10525000525C222A1DD0814221D22268525C2D2A22
:1052600002D0303A092A1AD821462846BDE87040B3
:10527000FFF73ABE0420E86006E0EE60A068401D3B
:1052800004E002206E61E860A068001DA0600120BB
:1052900070BD21462846BDE87040FFF722BF81421D
:1052A00003D22268525C5B2A07D0814203D2206875
:1052B000405C7B2807D0002070BD21462846BDE811
:1052C0007040FFF789BD21462846BDE87040FFF7D2
:1052D00083BE00006E756C6C0000000066616C732C
:1052E0006500000074727565000000002DE9F04D46
:1052F0001D460C4698B0174621F0004123F00043AC
:10530000002814BF4FF0010C4FF0000C0CEB440CC4
:10531000FE4A0CEB02064FEA620C66452BD33E00B8
:1053200018BF012606EB45061644F94A964222D3D9
:10533000F84A53EA070C02D0944205D148B918B094
:1053400000201146BDE8F08D002808BF4FF0000C8A
:1053500001D04FF0010C0CEB440212F5001F0AD8EB
:10536000002F14BF4FF0010C4FF0000C0CEB450266
:1053700012F5001F07D918B03A462B462146BDE862
:10538000F04DFEF73DBB0022DFF88CA3002CB8BF28
:10539000534526DADFF884C36345A8BF022220DA2A
:1053A000DFF870C39C451CDCDFF874C30CEB235C96
:1053B000BCF1140F08DDCCF1340627FA06FC0CFA18
:1053C00006F6BE420DD108E05FB9CCF1140623FA0F
:1053D00006FC0CFA06F69E4203D10CF00102C2F163
:1053E000020251EA000C19D1002D17DA002C18BF67
:1053F000022A01D0012A07D00220FEF729FB18B0AB
:10540000BDE8F04DFEF7F4BA0220FEF721FBFEF7EF
:10541000EFFA18B081F00041BDE8F08DB7F1000C53
:105420006CD1534525D104F1804212F5801201BFA1
:1054300000280020B74918B008BFBDE8F08DB54876
:10544000884207DC002DA1BF6046294618B0BDE8A0
:10545000F08D07E0281E05DA80F0004118B06046A4
:10546000BDE8F08DAF497944D1E9000118B0BDE83D
:10547000F08DDFF8A0C2634525D1002D1FDA19B1E8
:10548000514512D1D8B909E0002840F0EC82A24A77
:10549000214618B062F31E01BDE8F08D00202146C0
:1054A00018B060F31E01BDE8F08D08DA18B023468D
:1054B000BDE8F04D024600206146FBF747BA18B040
:1054C0002146BDE8F08D514518DAB5F1804F0DD079
:1054D000A5F1005CBCF1FF5C10D1B4F1000C0DDB58
:1054E00018B06146BDE8F04D00F022BC234618B06C
:1054F0000246BDE8F04D1946FBF7B6B9060024F0A8
:10550000004C3BD1D9B1514533D1002C06DD002DE3
:10551000A1BF0020514618B0BDE8F08D002C01DD80
:10552000002D1BDB002C13DA002D11DB012A4FF0BC
:10553000000014BF78497C4918B0BDE8F08D022AFC
:1055400018BF002C0AD0012A08D1002C06DA0AE084
:10555000002CB8BF002D11DA012A04D0002018B0A9
:105560000146BDE8F08D18B000204FF00041BDE8C5
:10557000F08DA1F14050B0F17F601AD0012000EB16
:10558000E47050EA020421D0624C521E4FF0000B2E
:10559000104304BF4FF0000B644C654883427CDD30
:1055A000644A654893421FDD884217DB002D25DBE6
:1055B00037E0002C00DA4AB1022A0CBF01204FF07C
:1055C000FF3018B0BDE8F04DFBF754BA0120FEF7EC
:1055D0003FFA18B0BDE8F04DFEF714BA4D4A8A42C2
:1055E00002DC002D0ADC1CE0814202DA002D18DA10
:1055F00004E0484B994220DD002D12DD0220FEF729
:1056000027FAFEF705FA05460E460022534658468D
:105610002146FBF729F918B066F31E012846BDE8BC
:10562000F08D0220FEF714FAFEF7FAF90A46214639
:1056300018B062F31E01BDE8F08D002230466146CD
:10564000FBF70CF980460E466FF00102FBF7EDF90F
:105650004FF05532394BFBF704F942463346FBF71E
:1056600003F90022364BFBF7FCF8824642463346EC
:10567000049110461946FBF7F7F85246049BFBF7D6
:10568000F3F88A4600904FF0C0422E4B4046314618
:10569000FBF7EAF82C4A2B4B00E027E0CDE90601A6
:1056A00051460098FBF7E0F882460191274A284BC3
:1056B00040463146FBF7D8F85246019BFBF7CEF83F
:1056C00082460B4602460591DDE90601FBF725F807
:1056D000DDE90623002688463046FBF7BFF8524630
:1056E000059BFBF7BEF8024600F07EB90020B1F53D
:1056F000801F07DA352230466146FBF796F90646E9
:105700006FF0340000EB215024E00000FFFF1F0089
:10571000FFFF0F000000F03F0000F07F000040435B
:1057200001FCFFFFDE0B00000000F0FF0000F0BFF7
:105730000000E0410000F043FFFFEF3F5555D53F2B
:105740000000E03F4715F73FFE822B6544DF5DF820
:105750000BAE543EA0F2FF300190C1F3130040F0B5
:105760007F6141F040510291FE498842D8BF00203C
:1057700004DDFD498142C8BF012001DD0D9008E034
:1057800000200D900198401C01900298A0F5801017
:1057900002900299F54878440B910D9900EBC100F5
:1057A000D0E900230F9330460A920B99FBF756F885
:1057B000CDE90601DDE90A2130460F9BFAF7ADFF7E
:1057C00002460B460020EA49FBF7C0F80591024665
:1057D0000B460090DDE90601FBF746F81490E5481A
:1057E0008A464FF0000878440299006812904FF002
:1057F000005040EA61010D980F9B01EB804000F5DD
:10580000002109910A9A1298FBF728F832460B9B5F
:10581000FBF727F842465346FBF726F80646029167
:1058200040465146099B129AFBF71EF8DDE9062314
:10583000FBF717F83246029BFBF710F8059B009A1E
:10584000FBF712F80091149A04905346104619463B
:10585000FBF70AF806460246C7480B4602910621A6
:105860007844FEF747F8CDE90510029B3246104612
:105870001946FAF7F9FFDDE90532FAF7F5FF059168
:105880000646534640461946149AFAF746FF009BCF
:10589000049AFAF7E9FF3246059BFAF73EFFCDE995
:1058A00005104246534610461946FAF7DDFF00221E
:1058B000B24B02910A90FAF730FFDDE90532FAF7B0
:1058C0002CFF0E464246AD4B4046FAF7C7FF029BFF
:1058D0000A9AFAF7C3FFDDE90532FAF7C2FF42463A
:1058E00002910A90334610465146FAF7BDFFCDE9C2
:1058F00006015346149A02990A98FAF7B5FF8A46A8
:1059000002903346424600990498FAF7ADFF534699
:10591000029AFAF702FF82460B4602460591DDE93C
:105920000601FAF7FAFEDDE906230020884606465E
:10593000FAF794FF5246059BFAF793FF82460991C6
:105940004FF060428E4B30464146FAF78DFF04908F
:1059500006918C4A8A4B50460999FAF785FF824690
:105960000291894A894B30464146FAF77DFF5246FB
:10597000029BFAF7D2FE864B7B440D9A03EBC203DF
:10598000D3E90023FAF7C9FE0E9007910198FBF7BF
:1059900071F80591DDE9061382460E9A0498FAF72C
:1059A000BCFE7C4A7A440D9B02EBC303D3E900237F
:1059B00000930292FAF7B1FE5246059BFAF7ADFE4C
:1059C0000026884652463046059BFAF747FF009B63
:1059D000029AFAF743FF069B049AFAF73FFF079BE8
:1059E0000E9AFAF73EFF024600200B460290384618
:1059F0002946FAF739FF824601912B463846194667
:105A0000029AFAF72BFF32464346FAF72DFF524629
:105A1000019BFAF782FE07468A46324643462946EC
:105A20000298FAF721FF05460E463A465346FAF722
:105A300074FE594A8846914221DBA8EB020353EADF
:105A4000000210D12A463346FAF708FFCDE90401D7
:105A5000524A534B38465146FAF75FFEDDE90423BC
:105A6000FBF7B6F821D20220FDF7F2FFFDF7D0FFD9
:105A70000A46214618B062F31E01BDE8F08D494B7D
:105A800028F000429A4210D3474A08EB020353EA37
:105A900000027FF4C6AD2A463346FAF7DFFE3A46E7
:105AA0005346FBF795F87FF6BCAD0022019228F033
:105AB00000403E493E4A01EB2051824223DA481C15
:105AC0004FF4801121FA00F040443A4AC0F30A51E1
:105AD0007A44394BA1F2FF31CB4020EA0303C0F3F3
